:100AD80053B1DF43B220C28553ACFE43AD01D2B05F
:100AE80053B37F43B480C29753B3BF43B440C29655
:100AF80053B3DF43B420C29553B3FE43B401C2904D
:100B080053B3FD43B402C29153B3FB43B404C2923E
:100B180053B3EF43B410D29453B3F743B408C2931A
:100B280053B1FE43B201C28053B1FD53B2FDD2812D
:100B380043E90853EAFD43EB0253B1FB43B204C255
:100B48008253B1F743B208C28353B1EF43B210C224
:100B58008453ACFE43AD01D2B053B1DF43B220C2DF
:020B68008522E4
:0C138C007F807E257D007C0012118022F5
:10000300120AD812138C53E9FCD2ACA2AF9202C2EB
:0F001300AF75C7AA75C75553A37FA20292AF223C
:0313A8002D4300D2
:0813150041006C00C101C100A0
:1011E800E490007BF0A3F020981890007BE475F061
:1011F80001120146FED3E5F094D0EE940740E87F53
:0C120800002290007DE599F0C298E0FF04
:0112140022B7
:0300230002025A7C
:10025A00C0E0C0F0C083C082C0D075D000C000C06A
:0D026A0001C002C003C004C005C006C007EB
:10027700900079E4F0A3F020980302044DC298900F
:100287000077E599F030010302044DE0647E6003D6
:1002970002044D900048747EF09000787401F0904D
:1002A7000078E0C3940474809480501A1211E89087
:1002B7000078E02448F582E43400F583EFF09000FD
:1002C70078E004F080D9900049E0645560030204A7
:1002D70033A3E064AA6003020433A3E064AA6003C3
:1002E700020433C2ACC2AFD2019000787404F0901C
:1002F7000078E0C3941074809480501A1211E8902B
:100307000078E02448F582E43400F583EFF09000AC
:1003170078E004F080D97A0079487B01C002C001F7
:100327007A00795C785C7C007D01D001D0027E0088
:100337007F1012010E9000787404F0900061E0FFC6
:10034700900078E0C39F5022E064066015E0245CCB
:10035700F582E43400F583E0FF900079E0F0A3E054
:100367006FF0900078E004F080D1900062E0FF9099
:100377000079E07003A3E06F600302042B90004C48
:10038700E0900000F090004C24FE607214606F242F
:10039700F9600E1460682488606424826003020494
:1003A700267A0079487B01C002C0017A00790A7871
:1003B7000A7C007D01D001D0027E007F1012010E61
:1003C700900078E4F0900078E0C3940674809480FD
:1003D700502CE02404F582E43400F583E0FF90001C
:1003E70078E02414F582E43400F583E06F60079029
:1003F7000000E4F08008900078E004F080C77A00FD
:1004070079487B01C002C0017A00790A780A7C002A
:100417007D01D001D0027E007F1012010E80059071
:100427000000E4F0C201D2AFD2AC801A900049E0DC
:1004370064557012A3E064AA700CA3E064E0700630
:0D04470090000074E0F0309904C299D200DA
:10045400D007D006D005D004D003D002D001D000FC
:0B046400D0D0D082D083D0F0D0E032A6
:0805A1008F248E238D228C2192
:1005A90090008B12024E900089740AF0E4A3F0E4E3
:1005B9007B0AFAF9F890008BE0FCA3E0FDA3E0FECA
:1005C900A3E0FF120198EB2430FF900089E014F0BA
:1005D900246DF582E43400F583EFF090008BE0FCA4
:1005E900A3E0FDA3E0FEA3E0FFE47B0AFAF9F81219
:1005F900019890008B12024EE4FFFEFDFC90008BE7
:10060900E0F8A3E0F9A3E0FAA3E0FBC312022A7021
:100619009EFFFEFDFCAB24AA23A922A821C3120236
:100629002A501490008AE0FF04F0746D2FF582E4DB
:100639003400F583742DF0900089E0FFC3740A9F9C
:1006490090006CF0900089E0FF04F0746D2FF58242
:10065900E43400F583E0FF90008AE0FE04F0746D55
:100669002EF582E43400F583EFF0900089E0C3941D
:100679000A7480948040CDE5256026A3E0FF04F04C
:10068900746D2FF582E43400F583740DF090008ABF
:10069900E0FF04F0746D2FF582E43400F583740AE9
:1006A900F090006CE02402F090008AE0246DF5825D
:0706B900E43400F583E4F0D6
:0106C0002217
:10121500E4900087F0A3F0C299C2008F9920991B32
:10122500200018900087E475F001120146FED3E511
:0B123500F094E8EE940340E52280E214
:01124000228B
:020E4C008F080D
:100E4E00E4900096F07BFF7A1379A8780D7C00FD74
:100E5E00FE7F0312010ED2ACAF0CAE0BAD0AAC0985
:100E6E007525011205A1C3E5089401748094804094
:100E7E000A740C2508F8E6FF121215E4900096F09D
:100E8E0090006CE0FF900096E0C39F5017E0246D39
:100E9E00F582E43400F583E0FF121215900096E01F
:060EAE0004F080DCC2AC80
:010EB400221B
:020F75008F1FCC
:100F7700D293D294C2937F057E001212F4E49000BC
:100F870097F0900097E0C3940874809480502BC228
:100F970093E51F30E004D2948002C294E51FC31387
:100FA700F51F7F037E001212D3D2937F037E0012B8
:0E0FB70012D3900097E004F080C8D294D29339
:010FC5002209
:101350008D40120F75E54024E0FF120F757FF212E9
:031360000F7522E4
:0D137F007FFE120F757F017E001212F42216
:041241008F1D8D1E52
:10124500E4900092F0A3F07F96FE1212F4AF1D1207
:101255000F75E51E24E0FF120F75900092E0FEA3C6
:02126500E0FFA8
:011267002264
:040EB5008F3E8D3FA0
:100EB900E4900094F0A3F07F64FE1212F4AF3E12A6
:100EC9000F75E53F24E0FF120F757F017E001212B6
:100ED900F4A2AF9202C2AF75C7AA75C75543AA401B
:100EE900A20292AF900094E475F001120146FED37C
:100EF900E5F09488EE941350073092CE800280CAB0
:0F0F09007F017E001212F4900094E0FEA3E0FF3F
:010F180022B6
:020841008F41E5
:10084300E490008FF0A3F0A3F07F96FE1212F490D1
:10085300008FE004F0C39403748094804003020883
:10086300E8E4A3F0A3F07F0AFE1212F47F29120F2B
:1008730075E54124E0FF120F757F017E001212F42B
:10088300A2AF9202C2AF75C7AA75C75543AA40A2C9
:100893000292AF90008FE06401700FC3900091E06B
:1008A30094BC900090E09402503390008FE0640277
:1008B300700FC3900091E09414900090E094055061
:1008C3001C900090E475F001120146FED3E5F0940C
:1008D30088EE941350073092A08002809C7FFE1212
:0C08E3000F750208527FF47E011212F41F
:0108EF0022E6
:101334008F427F967E001212F47F2F120F75E542C2
:0C13440024E0FF120F757FF2120F7522DB
:10131D000710312E30320000004100000042000263
:06132D000BB841002B008B
:03003B0002126846
:10126800C0E0C083C082E5EC30E70690002B740133
:10127800F0E5EC30E1069000017401F075EC00D067
:0612880082D083D0E032A9
:1000260075C7AA75C755759F0275C7AA75C7557551
:050036009F8280FE2204
:10128E00E4FD7C04ECC39410748094805013EC64E1
:10129E0006600BEF2CF582E43EF583E062050C80D0
:0312AE00E3AF05A6
:0112B100221A
:100A3F00A2AF9202C2AF75C7AA75C755439F01A255
:100A4F000292AF75A604E4F5A775AE0F75AFE1A2DC
:100A5F00AF9202C2AF75C7AA75C75543A504A202CC
:100A6F0092AFA2AF9202C2AF75C7AA75C75543A482
:100A7F0001A20292AFE59F5440644060F8A2AF928A
:100A8F0002C2AF75C7AA75C75553A5FBA20292AF95
:100A9F00A2AF9202C2AF75C7AA75C755539FFEA2E8
:100AAF000292AF75C7AA75C75575AA07A2AF920272
:100ABF00C2AF75C7AA75C75543AA40A20292AFAF7E
:090ACF00AAEF44BF74FF60F72296
:1010FF00E4900081F0F0900081E0C3940474809438
:10110F0080501AE02410F8E6FFE02423F582E4343F
:10111F0000F583EFF0900081E004F080D990002774
:10112F00742DF0A37450F0E4A3F07D017F7E1206BE
:01113F00C1EE
:01114000228C
:100C8400E4900081F0A3F0900000E064017004C2DD
:100C9400B0805D900000E064027004D2B080519096
:100CA4000000E0640A7049C2B0900081F0A3F090A3
:100CB4000002E0FEA3E0FFC3900082E09F90008169
:100CC400E09E502AA2AF9202C2AF75C7AA75C7555B
:100CD40043AA40A20292AF7F017E001212F4900058
:100CE40082E004F07006900081E004F080C1D2B08C
:050CF400E4900000F097
:010CF90022D8
:10046F00E490007EF0A3F0A3F0120003120B6A12C7
:10047F000A3FD2AFE4900080F0900080E0C3941068
:10048F00748094805023E0241AF582E43400F583BD
:10049F00E4F0900080E0240AF582E43400F583E470
:1004AF00F0900080E004F080D0E4900000F0A2AF64
:1004BF009202C2AF75C7AA75C75543AA40A202924E
:1004CF00AF7402F0120C84A2AF9202C2AF75C7AA2A
:1004DF0075C75543AA40A20292AF900000E0640195
:1004EF00600AE064026005E0640A700C7D017F7EA3
:1004FF001206C1120C8480CF900000E0640B7008CC
:10050F001210FFE4900000F0900000E06403702AE6
:10051F00900011E0FFC4540F540FFF900002E4F05D
:10052F00A3EFF0900002E0FEA3E0FF7C037DE81252
:10053F000134900002EEF0A3EFF0900000E064E0D1
:10054F007016E090002CF07D017F807E3712099DA0
:10055F00E4900000F0120026120DDFEF6029439B9C
:10056F0002E4900001F0900000740AF0120C845322
:10057F009BFD7F647E001212F4900001E070031265
:10058F0008F0E4900001F07F0A7E001212F40204DA
:01059F00D685
:0105A0002238
:0406C1008F1B8D1CE2
:1006C500C28E7F807E257D007C0012118090001AED
:1006D500747EF0A37455F0A374AAF0A3F090001FE4
:1006E5007410F0E51B247D601A2405702890000025
:1006F500E090001EF07E007F1A12128E900020EF0F
:10070500F0801290001EE51BF07E007F1A12128EFB
:10071500900020EFF0E4900086F0900086E0C3940E
:100725000A74809480500DE4FF121215900086E043
:1007350004F080E6E4900086F0900086E0C3941013
:1007450074809480502AE0241AF582E43400F583FD
:10075500E0FF121215E51C600F900086E0241AF5E3
:1007650082E43400F583E4F0900086E004F080C96B
:0D077500C28E7F807E257D007C00121180E9
:010782002254
:080783008F178C188D198B1AD9
:10078B00E4900084F0A3F0151AD3E51A940074805A
:10079B0094804079A2AF9202C2AF75C7AA75C755B4
:1007AB0043AA40A20292AFE4900084F0FDAF17126F
:1007BB0006C1900084E004F0C39519E4951850C766
:1007CB00A2AF9202C2AF75C7AA75C75543AA40A282
:1007DB000292AF7F017E001212F4900000E0B51779
:1007EB00D1E4900085F0900085E0C3941074809460
:1007FB00805014E0241AF582E43400F583E4F09081
:10080B000085E004F080DF7F0022020792E4900075
:10081B0085F0900085E0C39410748094805014E0B0
:10082B00241AF582E43400F583E4F0900085E004AB
:05083B00F080DF7FFFEB
:010840002295
:1011B900A2AF9202C2AF75C7AA75C75543A401A2CF
:1011C9000292AFE59F544064407013A2AF9202C2ED
:0F11D900AF75C7AA75C755539FBFA20292AF2229
:100F1900A2AF9202C2AF75C7AA75C755439F01A276
:100F29000292AF75AEFF75AF22A2AF9202C2AF7542
:100F3900C7AA75C75543A501A20292AFEFF5A6EE60
:100F4900F5A71211B9A2AF9202C2AF75C7AA75C7A8
:100F59005553A5FEA20292AFA2AF9202C2AF75C7C6
:0C0F6900AA75C755539FFEA20292AF224A
:06099D00AB07AA06A90544
:1009A300120F19A2AF9202C2AF75C7AA75C75543FA
:1009B3009F01A20292AFA2AF9202C2AF75C7AA75FE
:1009C300C75543A501A20292AFEBF5A6EAF5A775B9
:1009D300AF21E4900085F0A3F0E9FFC3900086E027
:1009E3009F900085E09400502CE0FEA3E0242CF5BA
:1009F3008274003EF583E0F5AE1211B905A6AFA6E9
:100A0300EF700205A7900086E004F0700690008561
:100A1300E004F080C4A2AF9202C2AF75C7AA75C743
:100A23005553A5FEA20292AFA2AF9202C2AF75C701
:0B0A3300AA75C755539FFEA20292AFA8
:010A3E002295
:100DDF009000467464F03081047F0180027F00EF41
:100DEF00600990002A7401F07F002290002AE070C1
:100DFF0002FF22E490002AF03081047F0180027FFD
:100E0F0000EF600990002A7401F07F0022900046E5
:100E1F00E06464700F7F01FE1212F4900046E0242C
:100E2F00F7F080077F017E001212D3900046E01486
:0D0E3F00F0D394007480948050BE7F012297
:1008F000E4900083F09000217403F0E4A3F09000F2
:1009000000F07B0A7DC8FC7F83120783EF70739031
:100910000013E0F4706C900082F0900082E0C394C9
:100920000674809480501DE02414F582E43400F5B0
:1009300083E060089000837401F08008900082E0FA
:1009400004F080D6900083E06038E4900082F0905C
:100950000082E0C39406748094805023E02414F550
:1009600082E43400F583E0FF900082E02404F58205
:10097000E43400F583EFF0900082E004F080D012C0
:100980001141A2AF9202C2AF75C7AA75C75543AA5B
:0C09900040A20292AF900081E0FF7E00C8
:01099C002238
:10114100E4900084F0900084E0C39406748094805D
:101151005023E02404F582E43400F583E0FF90009D
:1011610084E02440F582E43400F583EFF0900084BC
:0E117100E004F080D07D1A7F007E3712099DC9
:01117F00224D
:100B6A009000827403F0E4A3F0A3F0900082E0FF07
:100B7A0014F0D3EF9400748094804071E490008163
:100B8A00F0900081E0C39406748094805034E09021
:100B9A00371493FF900081E02404F582E43400F5D1
:100BAA0083EFF0900081E02404F582E43400F583B9
:100BBA00E0F460069000847401F0900081E004F093
:100BCA0080BF900084E07025900081F0900081E061
:100BDA00C39406748094805014E02404F582E434AB
:0D0BEA0000F583E4F0900081E004F080DF6E
:010BF70022DB
:1011800053B1BF53B2BF53B17F53B27F7598504331
:101190008920438780438E1053C4DFAB07AA06A97A
:1011A00005A8047F407E427D0F7C00120198EF0469
:0911B000F404F58DD28ED29922CF
:100CFA008F298E288D278C2653B1BF53B2BF53B18B
:100D0A007F53B27F75985043878053C4F843C420F9
:100D1A00AB29AA28A927A8267F407E427D0F7C00FE
:100D2A00120198C374FF9FFF74FF9EFEE49DFDE4C9
:100D3A009CFC780812023B8FC6AB29AA28A927A8CF
:100D4A00267F407E427D0F7C00120198C374FF9F6C
:100D5A00FF74FF9EFEE49DFDE49CFCEFE48FC54317
:050D6A00C408D299222B
:0D1363003098FD900098E599F0C298E0FFE9
:01137000225A
:08139800C2998F993099FD22E2
:100D6F008F2D8E2C8D2B8C2A53B1FB53B2FB53B38B
:100D7F00BF53B4BF75F85075C40853C4DFAB2DAA69
:100D8F002CA92BA82A7F407E427D0F7C0012019850
:100D9F00C374FF9FFF74FF9EFEE49DFDE49CFC78EF
:100DAF000812023B8FC6AB2DAA2CA92BA82A7F4075
:100DBF007E427D0F7C00120198C374FF9FFF74FF6A
:100DCF009EFEE49DFDE49CFCEFE48FC543C4082226
:0D13710030F8FD900099E59AF0C2F8E0FF19
:01137E00224C
:0813A000C2F98F9A30F9FD2219
:1012B200538EF7438901D28CEF4E6012758AF37513
:1012C2008CFF308DFDC28DEF1F70011E80EAC28C33
:0112D20022F9
:1012D300538EF7438901D28CEF4E6012758A7E7567
:1012E3008CFF308DFDC28DEF1F70011E80EAC28C12
:0112F30022D8
:1012F400538EF7438901D28CEF4E6012758ACA75FA
:101304008CFA308DFDC28DEF1F70011E80EAC28CF5
:0113140022B6
:1010B4008F318E308D2F8C2E538EEF438910D28E2C
:1010C400E4FFFEFDFCAB31AA30A92FA82EC3120207
:1010D4002A6025758BEA758DCB308FFDC28F74FF26
:1010E4002531F531E53034FFF530E52F34FFF52FA8
:0B10F400E52E34FFF52E80C8C28E22CE
:101066008F358E348D338C3253C9BF53C9DF43C994
:1010760010D2CAE4FFFEFDFCAB35AA34A933A83270
:10108600C312022A602575CC3075CDF830CFFDC26B
:10109600CF74FF2535F535E53434FFF534E53334C3
:0E10A600FFF533E53234FFF53280C8C2CA22AE
:100FC6008F398E388D378C3675C40743C408E4FFD5
:100FD600FEFDFCAB39AA38A937A836C312022A602F
:100FE6002B75C52C75C6CFE5C45410641070F85324
:100FF600C4EF74FF2539F539E53834FFF538E537A0
:1010060034FFF537E53634FFF53680C253C4F72290
:101016008F3D8E3C8D3B8C3A75C40743C408E4FF74
:10102600FEFDFCAB3DAA3CA93BA83AC312022A60CE
:101036002B75C5D875C6FFE5C45410641070F853F7
:10104600C4EF74FF253DF53DE53C34FFF53CE53B3B
:1010560034FFF53BE53A34FFF53A80C253C4F72234
:03000000020BF8F8
:0C0BF800787FE4F6D8FD758142020C3FC6
:100C040002046FE493A3F8E493A34003F68001F293
:100C140008DFF48029E493A3F85407240CC8C333F1
:100C2400C4540F4420C8834004F456800146F6DFC0
:100C3400E4800B0102040810204080901315E47E28
:100C4400019360BCA3FF543F30E509541FFEE493B5
:100C5400A360010ECF54C025E060A840B8E493A37C
:100C6400FAE493A3F8E493A3C8C582C8CAC583CAA7
:100C7400F0A3C8C582C8CAC583CADFE9DEE780BE5F
:0113330000B9
:10003E00E709F608DFFA8046E709F208DFFA803EA4
:10004E0088828C83E709F0A3DFFA8032E309F60891
:10005E00DFFA8078E309F208DFFA807088828C83F9
:10006E00E309F0A3DFFA806489828A83E0A3F608AD
:10007E00DFFA805889828A83E0A3F208DFFA804C87
:10008E0080D280FA80C680D4806980F2803380105E
:10009E0080A680EA809A80A880DA80E280CA8033C7
:1000AE0089828A83ECFAE493A3C8C582C8CCC5833F
:1000BE00CCF0A3C8C582C8CCC583CCDFE9DEE7800F
:1000CE000D89828A83E493A3F608DFF9ECFAA9F08E
:1000DE00EDFB2289828A83ECFAE0A3C8C582C8CCE4
:1000EE00C583CCF0A3C8C582C8CCC583CCDFEADEFD
:1000FE00E880DB89828A83E493A3F208DFF980CC5F
:10010E0088F0EF60010E4E60C388F0ED2402B40457
:10011E000050B9F582EB2402B4040050AF232345FE
:06012E00822390008E7395
:10013400EF8DF0A4A8F0CF8CF0A428CE8DF0A42EDF
:02014400FE2299
:10014600C5F0F8A3E028F0C5F0F8E5821582700244
:060156001583E038F022E1
:10015C0075F008758200EF2FFFEE33FECD33CDCC5A
:10016C0033CCC58233C5829BED9AEC99E5829840DD
:10017C000CF582EE9BFEED9AFDEC99FC0FD5F0D6BA
:10018C00E4CEFBE4CDFAE4CCF9A88222B800C1B9E4
:10019C000059BA002DEC8BF084CFCECDFCE5F0CB22
:1001AC00F97818EF2FFFEE33FEED33FDEC33FCEB5B
:1001BC0033FB10D703994004EB99FB0FD8E5E4F916
:1001CC00FA227818EF2FFFEE33FEED33FDEC33FC03
:1001DC00C933C910D7059BE99A4007EC9BFCE99AF7
:1001EC00F90FD8E0E4C9FAE4CCFB2275F010EF2F3C
:1001FC00FFEE33FEED33FDCC33CCC833C810D7073C
:10020C009BEC9AE899400AED9BFDEC9AFCE899F876
:0E021C000FD5F0DAE4CDFBE4CCFAE4C8F92209
:10022A00EB9FF5F0EA9E42F0E99D42F0E89C45F02A
:01023A0022A1
:10023B00E8600FECC313FCED13FDEE13FEEF13FFA1
:03024B00D8F122C5
:0C024E00ECF0A3EDF0A3EEF0A3EFF02223
:00000001FF
