:100D88001026000000000000000000000000000025
:100D9800000001600014374E37364530303320628A
:0B0DA8006F6F746C6F616465720A006D
:100C9200A2AF9202C2AF75C7AA75C755439F01A200
:100CA2000292AFEFF5A68EA7E4F5AFA2AF9202C211
:100CB200AF75C7AA75C75543A401A20292AFAFAEE2
:100CC200A2AF9202C2AF75C7AA75C755539FFEA2C3
:030CD2000292AFDC
:010CD50022FC
:100D5000A2AF9202C2AF75C7AA75C75543A401A23C
:100D60000292AFE59F54406440701CC2927F647E43
:100D7000007D007C00120BB6D2927F647E007D0065
:080D80007C00120BB680E42296
:10082500A2AF9202C2AF75C7AA75C755439F01A271
:100835000292AFA2AF9202C2AF75C7AA75C7554360
:10084500A501A20292AF75AEFF75AF22E4F512F5D0
:1008550013E51375F080A4F5A6AE12E5137807C36A
:1008650033CE33CED8F9EEF5A7120D500513E513A7
:1008750070020512C39470E512940040D4A2AF92A1
:1008850002C2AF75C7AA75C75553A5FEA20292AF9E
:10089500A2AF9202C2AF75C7AA75C755539FFEA2F4
:0308A5000292AF0D
:0108A800222D
:06079F008B148A15891677
:1007A500A2AF9202C2AF75C7AA75C755439F01A2F2
:1007B5000292AFA2AF9202C2AF75C7AA75C75543E1
:1007C500A501A20292AFEFF5A68EA775AF21E4F5BC
:1007D50018E518C395175021AB14AA15A916851845
:1007E50082758300120135F5AE120D5005A6AFA630
:1007F500EF700205A7051880D8A2AF9202C2AF75A7
:10080500C7AA75C75553A5FEA20292AFA2AF920221
:0F081500C2AF75C7AA75C755539FFEA20292AF17
:0108240022B1
:10097D00A2AF9202C2AF75C7AA75C755439F01A218
:10098D000292AF75AF04E4F5A6F5A7F560C3E56077
:10099D00940C7480948050118560A6120D507426AD
:1009AD002560F8A6AE056080E4A2AF9202C2AF75D5
:1009BD00C7AA75C755539FFEA20292AF78327C002D
:0F09CD007D007B007A00792E7E007F040200F609
:1000030075C7AA75C755E4F59F75C7AA75C7557512
:040013009F8080FE4C
:100CD6008F128D137E007F877D007B017A007987D6
:100CE6001202419000877455F0A374AAF0A3E5128E
:100CF600F0A3E513F0E490008CF07B017A0079878D
:100D06001209DC90008DEFF07B017A007987020CE6
:010D16004C90
:1008A9007E007F877D007B017A0079871202419063
:1008B90000877455F0A374AAF0A37401F0E4A3F0BF
:1008C90090008C7410F0E4F560C3E56094107480B6
:1008D9009480502074262560F8E6FF744F2560F84F
:1008E900E66FFF748E2560F582E43400F583EFF03E
:1008F900056080D57B017A0079871209DC90008D2B
:0B090900EFF07B017A007987020C4CB4
:060C4C008B148A158916C5
:100C52008B178A188919E4F560AB14AA15A91690A6
:100C620000051201352407FFE433FEC3E5609FEE61
:100C72006480F87480985017AB17AA18A919856078
:0F0C820082758300120135FF120DDB056080CAF9
:010C91002240
:1006FC00A2AF9202C2AF75C7AA75C755439F01A29C
:10070C000292AF75A630E4F5A775AF04A2AF9202C2
:10071C00C2AF75C7AA75C75543A401A20292AF8593
:10072C00AE2375A631F5A7A2AF9202C2AF75C7AAC8
:10073C0075C75543A401A20292AF85AE24A2AF9215
:10074C0002C2AF75C7AA75C755539FFEA20292AFDE
:10075C00E52325E0FFE433FEE52454017C002FF56E
:10076C0022EC3EF52174F12522F52274FF3521F59A
:10077C0021E5225401F524E521C313E52213F523C9
:10078C0075C7AA75C75585238475C7AA75C75585BE
:03079C002485228F
:10026D00A2AF9202C2AF75C7AA75C755439F01A22F
:10027D000292AFE4F5A6F5A775AFC0A2AF9202C288
:10028D00AF75C7AA75C75543A401A20292AFAFAE11
:10029D0075A601A2AF9202C2AF75C7AA75C7554325
:1002AD00A401A20292AFAEAE75A602A2AF9202C297
:1002BD00AF75C7AA75C75543A401A20292AFADAEE3
:1002CD0075A603A2AF9202C2AF75C7AA75C75543F3
:1002DD00A401A20292AFACAE75A604A2AF9202C267
:1002ED00AF75C7AA75C75543A401A20292AFABAEB5
:1002FD004303F0A2AF9202C2AF75C7AA75C75543AB
:10030D00A504A20292AF75AFE2F5A7F5A675AEFFF3
:10031D00A2AF9202C2AF75C7AA75C75543A401A279
:10032D000292AF75AFE18FAEA2AF9202C2AF75C7A9
:10033D00AA75C75543A401A20292AF75A6018EAE50
:10034D00A2AF9202C2AF75C7AA75C75543A401A249
:10035D000292AF75A6028DAEA2AF9202C2AF75C763
:10036D00AA75C75543A401A20292AF75A6038CAE20
:10037D00A2AF9202C2AF75C7AA75C75543A401A219
:10038D000292AF75A6048BAEA2AF9202C2AF75C733
:10039D00AA75C75543A401A20292AFA2AF9202C2A1
:1003AD00AF75C7AA75C75553A5FBA20292AFA2AFF1
:1003BD009202C2AF75C7AA75C755539FFEA202928E
:0103CD00AF80
:0103CE00220C
:060914008B128A13891406
:10091A00900002120135FF90000312013562079020
:10092A00000412013562079000051201356207E4DE
:10093A00F560AB12AA13A914900005120135FEE561
:10094A0060C39E5019E92407F9E43AFAE5607C008D
:10095A0029F9EC3AFA12011C6207056080D4AB123D
:10096A00AA13A914900006120135B507037F0122C4
:02097A007F00FC
:01097C002258
:1003CF00E4F511F510F50FF50E7B017A00790012A7
:1003DF000914EF700D900002E0FF7D02120CD67F22
:1003EF000222E51D64027035900003E06405700879
:1003FF00900005E06410600D900002E0FF7D041294
:10040F000CD67F0422753601784F7C007D007B016E
:10041F007A0079077E007F101200F68076E536703D
:10042F00030204C7E51D640170061208A97F0022AC
:10043F00E51D640370051208258058E51D640470DE
:10044F005F900004E0900003E075F080A4FFAEF031
:10045F00E48F118E10F50FF50EF560C3E5609480F3
:10046F0074809480501D74072560F582E43400F584
:10047F0083E0FFE560540F2426F8E6FEEF6EF005EB
:10048F006080D8AE10AF117B017A007907751780A5
:10049F0012079F900002E0FFE4FD120CD67F0022AE
:1004AF00E51D64057012F536900002E0FFE4FD12C1
:1004BF000CD61200037F0022900002E0FF7D031292
:0404CF000CD67F03C5
:0104D3002206
:1004D400E4F50AF50B750C64F50D7F807E37120C7C
:1004E400928F0DEF64E0600302059C53B1DF43B2C9
:1004F40020C28553B37F43B480C297A2AF9202C295
:10050400AF75C7AA75C75543AA40A20292AF12029B
:100514006D1206FC7F007EC27D017C00120D17D295
:10052400ACD2AF12097DE4F50AC3E50A94147480D1
:100534009480500E7437250AF8E6FF120DDB050A85
:1005440080E7050CE50C7002050BC394F4E50B94ED
:10055400015033A2AF9202C2AF75C7AA75C7554303
:10056400AA40A20292AFE51D600F1203CFEF700400
:10057400F50BF50CE4F51D80C97F0A7E007D007C37
:1005840000120BB680BCE4F50DFB7A00790D7517EB
:0D059400017F807E3712079F12000380FE5A
:040DB300C101C100B9
:0609DC008B148A15891638
:1009E200E4FE900002120135FF900003120135620D
:1009F200079000041201356207900005120135626A
:100A020007AB14AA15A916900005120135FDEEC315
:100A12009D5017E92407F9E43AFAEE7C0029F9EC33
:0A0A22003AFA12011C62070E80D799
:010A2C0022A7
:080DB800EFF0120DC0A3EFF0F3
:100DC000E4FFFE2098100FEF70010ED394E8EE942C
:0A0DD0000340F07F0022AF99C298A3
:010DDA0022F6
:030023000205A132
:1005A100C0E0C0F0C083C082C0D075D000C000C020
:0D05B10001C002C003C004C005C006C007A1
:1005BE00E4FFFEF508F509309866C298AD99200162
:1005CE005FED6455705AD201120DC0EF64AA7057D8
:1005DE00FE7F87FD7B017A007900120241120DC069
:1005EE00900002120DB8A3120DB8A3EFF090000503
:1005FE00E0D3948074809480502DE4FD900005E04B
:10060E00FFEDC39F5012120DC074072DF582E43416
:10061E0000F583EFF00D80E4C201900002E0F51DBD
:07062E00309904C299D200CB
:10063500D007D006D005D004D003D002D001D00019
:0B064500D0D0D082D083D0F0D0E032C3
:100B6B008F648E638D628C61538EF7438901D28CB7
:100B7B00E4FFFEFDFCAB64AA63A962A861C3120289
:100B8B00306025758A7E758CFF308DFDC28DE564D6
:100B9B0024FFF564E56334FFF563E56234FFF5622A
:0B0BAB00E56134FFF56180C8C28C22B8
:100BB6008F1C8E1B8D1A8C19538EF7438901D28C8C
:100BC600E4FFFEFDFCAB1CAA1BA91AA819C312025E
:100BD600306025758ACA758CFA308DFDC28DE51C8C
:100BE60024FFF51CE51B34FFF51BE51A34FFF51A47
:0B0BF600E51934FFF51980C8C28C22FD
:100C01008F688E678D668C65538EEF438910D28E07
:100C1100E4FFFEFDFCAB68AA67A966A865C31202E2
:100C2100306025758BEA758DCB308FFDC28FE568FD
:100C310024FFF568E56734FFF567E56634FFF5667F
:0B0C4100E56534FFF56580C8C28E2217
:100B1D008F6C8E6B8D6A8C6953C9BF53C9DF43C906
:100B2D0010D2CAE4FFFEFDFCAB6CAA6BA96AA869E2
:100B3D00C3120230602575CC3075CDF830CFFDC2B3
:100B4D00CFE56C24FFF56CE56B34FFF56BE56A348E
:0E0B5D00FFF56AE56934FFF56980C8C2CA2257
:100A2D008F708E6F8D6E8C6D75C40743C408E4FF97
:100A3D00FEFDFCAB70AA6FA96EA86DC312023060EB
:100A4D002B75C52C75C6CFE5C45410641070F853C2
:100A5D00C4EFE57024FFF570E56F34FFF56FE56EBB
:100A6D0034FFF56EE56D34FFF56D80C253C4F7228A
:100A7D008F748E738D728C7175C40743C408E4FF37
:100A8D00FEFDFCAB74AA73A972A871C3120230608B
:100A9D002B75C5D875C6FFE5C45410641070F85396
:100AAD00C4EFE57424FFF574E57334FFF573E57257
:100ABD0034FFF572E57134FFF57180C253C4F7222E
:100ACD008F788E778D768C7575C40943C408E4FFD5
:100ADD00FEFDFCAB78AA77A976A875C3120230602B
:100AED002B75C5D875C6FFE5C45410641070F85346
:100AFD00C4EFE57824FFF578E57734FFF577E576F3
:100B0D0034FFF576E57534FFF57580C253C4F722D1
:100D170053B1BF53B2BF53B17F53B27F759850439E
:100D27008920438780438E1053C4DFAB07AA06A9E7
:100D370005A8047F407E427D0F7C0012019EEF04D0
:090D4700F404F58DD28ED299223C
:070017003098FDAF99C2987B
:01001E0022BF
:080DDB00C2998F993099FD22A5
:03000000020650A5
:1006500075C7AA75C75575FD5A75C7AA75C755756B
:10066000FDA5787FE4F6D8FD9000007FFF7E03E4CF
:0C067000F0A3DFFCDEFA7581780206B70B
:10067C000204D4E493A3F8E493A34003F68001F2BC
:10068C0008DFF48029E493A3F85407240CC8C3337F
:10069C00C4540F4420C8834004F456800146F6DF4E
:1006AC00E4800B0102040810204080900D88E47E49
:1006BC00019360BCA3FF543F30E509541FFEE49343
:1006CC00A360010ECF54C025E060A840B8E493A30A
:1006DC00FAE493A3F8E493A3C8C582C8CAC583CA35
:1006EC00F0A3C8C582C8CAC583CADFE9DEE780BEED
:010DB700003B
:10002600E709F608DFFA8046E709F208DFFA803EBC
:1000360088828C83E709F0A3DFFA8032E309F608A9
:10004600DFFA8078E309F208DFFA807088828C8311
:10005600E309F0A3DFFA806489828A83E0A3F608C5
:10006600DFFA805889828A83E0A3F208DFFA804C9F
:1000760080D280FA80C680D4806980F28033801076
:1000860080A680EA809A80A880DA80E280CA8033DF
:1000960089828A83ECFAE493A3C8C582C8CCC58357
:1000A600CCF0A3C8C582C8CCC583CCDFE9DEE78027
:1000B6000D89828A83E493A3F608DFF9ECFAA9F0A6
:1000C600EDFB2289828A83ECFAE0A3C8C582C8CCFC
:1000D600C583CCF0A3C8C582C8CCC583CCDFEADE15
:1000E600E880DB89828A83E493A3F208DFF980CC77
:1000F60088F0EF60010E4E60C388F0ED2402B40470
:100106000050B9F582EB2402B4040050AF23234516
:06011600822390007673C5
:10011C00BB010689828A83E0225002E722BBFE02E1
:09012C00E32289828A83E4932214
:10013500BB010CE58229F582E5833AF583E022507F
:1001450006E92582F8E622BBFE06E92582F8E222C9
:0D015500E58229F582E5833AF583E49322E3
:1001620075F008758200EF2FFFEE33FECD33CDCC54
:1001720033CCC58233C5829BED9AEC99E5829840D7
:100182000CF582EE9BFEED9AFDEC99FC0FD5F0D6B4
:10019200E4CEFBE4CDFAE4CCF9A88222B800C1B9DE
:1001A2000059BA002DEC8BF084CFCECDFCE5F0CB1C
:1001B200F97818EF2FFFEE33FEED33FDEC33FCEB55
:1001C20033FB10D703994004EB99FB0FD8E5E4F910
:1001D200FA227818EF2FFFEE33FEED33FDEC33FCFD
:1001E200C933C910D7059BE99A4007EC9BFCE99AF1
:1001F200F90FD8E0E4C9FAE4CCFB2275F010EF2F36
:10020200FFEE33FEED33FDCC33CCC833C810D70735
:100212009BEC9AE899400AED9BFDEC9AFCE899F870
:0E0222000FD5F0DAE4CDFBE4CCFAE4C8F92203
:10023000EB9FF5F0EA9E42F0E99D42F0E89C45F024
:01024000229B
:10024100EF4E6012EF60010EEDBB010B89828A83D4
:10025100F0A3DFFCDEFA2289F05007F709DFFCA9E1
:0C026100F022BBFEFCF309DFFCA9F02238
:00000001FF
