:03000000020BE40C
:0C0BE400787FE4F6D8FD758147020C2BE9
:100DA70049005C504D2D312E30330000024600655E
:040DB7004100750082
:10117B00E490007EF090007EE02465F582E434007C
:10118B00F583E4F090007EE004F0E0C394107480EB
:0A119B00948040E175460075476539
:0111A5002227
:10109F00C2C6C2AF53B3F753B4F753B3EF53B4EF62
:1010AF00D294D293A2AF920275C7AA75C755759104
:1010BF000143B40875C7AA75C755E4F591A202920A
:0E10CF00AF439B01D2AF75C1E0D2C6D2C222A0
:10111600900076E06401700D900031EFF0E49000ED
:1011260076F002117BC3E5479475E54694005017A7
:101136000547E547AC467002054614F5828C83EFF9
:08114600F0900075E004F022B6
:030033000208368A
:10083600C0E0C0F0C083C082C0D075D000C000C088
:1008460001C002C003C004C005C006C00790003046
:100856007401F0AFBDEF12027508810008856008CB
:10086600FA68088F80089188089AA008AEA808D46C
:10087600B808FAC008FAC8000008FCD2C48077900D
:1008860000767401F0D2C2806D8000AFBC121116E2
:10089600D2C28062D2C2900031E0D39400748094B8
:1008A6008040531209F5804EC3E5479475E546949A
:1008B6000050140547E547AE467002054614F5821A
:1008C6008E83E0F5BC800375BC00D2C28028C3E5E8
:1008D600479475E546940050140547E547AE4670C3
:1008E60002054614F5828E83E0F5BC800375BC00D4
:1008F600D2C28002D2C2C2C320C4FDD007D006D065
:1009060005D004D003D002D001D000D0D0D082D000
:0609160083D0F0D0E032B6
:1009F500900031E0FF24FE601E24FE603314605732
:100A050014601B14602124F76063240F6003020A3D
:100A1500ADE4900058F0229000557401F02290004A
:100A250065E0900057F022900065E0900033F022D9
:100A3500900065EFF0900059E0900066F09000326C
:100A4500E0900067F090005BE0900068F0E49000B3
:100A550059F090005BF022900031E0900065F09035
:100A6500005AE0900066F0E490005AF022900031C0
:100A7500E0900065F0E490007EF090007EE0C39485
:100A850009748094805021E0FF245CF582E43400F1
:100A9500F583E0FE74662FF582E43400F583EEF00D
:080AA50090007EE004F080D215
:010AAD002226
:100DBB0041005A00410056004100590041003200E9
:100DCB0041005800410055004100300041002F0008
:100DDB004100310041004400410057004100330005
:040DEB0041005B0068
:1010150043E90443EA0153EBFE53B3FE43B401D263
:101025009043E94043EA2053EBDF53B3DF43B42059
:10103500D29543E98043EA8053EB7F53B37F43B4B2
:1010450080D29753B1EF43B210C28453B1DF43B29C
:0710550020C28543E90122DE
:0B1237007F807E257D007C000210DD22
:10121C0043C97053C8FE43C98043C90875CAEE75EB
:0B122C00CB85E4F5CCF5CD439B802280
:03003B000200269A
:0400260075EC003243
:03002B000211CFF0
:1011CF00C0E0C083C082C0D0C2CF900058E004F00E
:1011DF00D394077480948040069000447401F0D03B
:0811EF00D0D082D083D0E032A1
:0D000300900056E0900059F0E4900032F0BB
:10001000D2857F1E7E007D007C00120F7FC285226C
:02105C008F12F1
:10105E009000797464F0E51260037F0022900079AD
:10106E00E064647F01700FFEFDFC120F7F9000792B
:10107E00E024F7F080097E007D007C00120F349092
:10108E000079E014F0D394007480948050C87F01EE
:01109E00222F
:1011F700E4FD7C04ECFBC39410748094805013EBE3
:101207006406600BEF2CF582E43EF583E062050C83
:0412170080E2AF05BD
:01121B0022B0
:040AAE007D017F7EC9
:040AB2008D16A907ED
:100AB600900045747EF0A37455F0A374AAF0A3F0D9
:100AC60090004A7410F0E9247F24FD500D2406702E
:100AD6001A90002FE09000498004900049E9F07ECA
:100AE600007F451211F790004BEFF0E490007BF089
:100AF60090007BE0C3940A74809480500DE4FF124A
:100B060011A690007BE004F080E6E490007BF09074
:100B1600007BE0FFC3941074809480502A74452FA4
:100B2600F582E43400F583E0FF1211A6E516600FA6
:100B360090007BE02445F582E43400F583E4F090F0
:070B4600007BE004F080C811
:010B4D002285
:10091C00900056E090004CF0900032E090004DF0CA
:08092C007B047DC87C007F8381
:080934008F128C138D148B153A
:10093C00E4900079F0A3F01515D3E51594007480BC
:10094C009480407BA2AF9202C2AF75C7AA75C755FF
:10095C0043AA40A20292AFE4900079F0FDAF1212CC
:10096C000AB2900079E004F0C39514E4951350C7D3
:10097C00A2AF9202C2AF75C7AA75C75543AA40A2CF
:10098C000292AF7F017E007D007C00120F7F9000F1
:10099C002FE0B512CDE490007AF090007AE0FFC31E
:1009AC00941074809480501474452FF582E43400B4
:1009BC00F583E4F090007AE004F080DE7F0022E41E
:1009CC0090007AF090007AE0FFC3941074809480C9
:1009DC00501474452FF582E43400F583E4F0900054
:0809EC007AE004F080DE7FFFD9
:0109F40022E0
:10029B00E4900077F0F50EF50FF510F511900033A3
:1002AB00E0900078F0A2AF9202C2AF75C7AA75C7F3
:1002BB005543AA40A20292AFA295E433FF12105C01
:1002CB00EF60719000567401F0900032F09000597D
:1002DB00F01200100511E51170020510C394C8E56A
:1002EB0010648094805039A2AF9202C2AF75C7AA36
:1002FB0075C75543AA40A20292AF7F647E007D0072
:10030B007C00120F7F90002FE064047008120AAE7D
:10031B00E490002FF0A295E433FF12105CEF70B461
:10032B00120003900078E0700812091C750E008F04
:10033B000F02044EA290E433FF12105CEF606E903C
:10034B000030E070030204539000567402F09000EA
:10035B003214F090005904F01200100511E51170E1
:10036B00020510C394C8E510648094805039A2AF85
:10037B009202C2AF75C7AA75C75543AA40A2029293
:10038B00AF7F647E007D007C00120F7F90002FE01A
:10039B0064047008120AAEE490002FF0A290E433CC
:1003AB00FF12105CEF70B412000302044EA297E42C
:1003BB0033FF12105CEF7003020453D2CA90005645
:1003CB007403F09000327401F09000597403F090B4
:1003DB000078E0701412091C750E008F0FE50F45A5
:1003EB000E600690005B7401F012001090005BE051
:1003FB007002D2840511E51170020510C394C8E593
:10040B0010648094805039A2AF9202C2AF75C7AA14
:10041B0075C75543AA40A20292AF7F647E007D0050
:10042B007C00120F7F90002FE064047008120AAE5C
:10043B00E490002FF0A297E433FF12105CEF70B43E
:08044B00120003E4900056F0DA
:010453002286
:100B4E00A2AF9202C2AF75C7AA75C755439F01A245
:100B5E000292AF75A604E4F5A775AE0F75AFE1A2CC
:100B6E00AF9202C2AF75C7AA75C75543A504A202BC
:100B7E0092AFA2AF9202C2AF75C7AA75C75543A472
:100B8E0001A20292AFE59F5440644060F8A2AF927A
:100B9E0002C2AF75C7AA75C75553A5FBA20292AF85
:100BAE00A2AF9202C2AF75C7AA75C755539FFEA2D8
:100BBE000292AF75C7AA75C75575AA07A2AF920262
:100BCE00C2AF75C7AA75C75543AA40A20292AFAF6E
:060BDE00AA74FF60FA2278
:1005DE00E4F508F509F50AF50B121015121237D2CB
:1005EE00AC12109F439B0212121CD2AFA2AF92020A
:1005FE00C2AF75C7AA75C75553A37FA20292AF1299
:10060E000B4EA2AF9202C2AF75C7AA75C75543AAC9
:10061E0040A20292AF12029B7F0A7E007D007C00F8
:10062E00120F7F900055E0605CE4F508F509A2AF6B
:10063E009202C2AF75C7AA75C75543AA40A20292CD
:10064E00AF7F0A7E007D007C00120F7F0509E50951
:10065E0070020508C39464E5086480948040CFC29C
:10066E0084E4900030F0C2CA900058F0900055F02B
:10067E0090004C04F07B047DC87C007F821209340C
:10068E00750C008F0D900044E06024C284C2CAE451
:10069E00900030F0900058F0900044F090004CF034
:1006AE007B047DC8FC7F82120934750C008F0D907F
:1006BE000031E06406701D900057E090004CF07B16
:1006CE00047DC87C007F81120934750C008F0DE407
:1006DE00900031F090002FE06401701690005A04E3
:1006EE00F0FD7F7E120AB2E490002FF0120010028D
:1006FE00061090002FE064046003020610120AAE8A
:08070E00E490002FF002061038
:061262002D43002D4300A6
:080DEF0041002400C101C10014
:080716008F2C8E2B8D2A8C29FB
:10071E00900088120269900086740AF0E4A3F0E457
:10072E007B0AFAF9F8900088E0FCA3E0FDA3E0FE56
:10073E00A3E0FF1201B3EB2430FF900086E014F02B
:10074E002425F582E43400F583EFF0900088E0FC78
:10075E00A3E0FDA3E0FEA3E0FFE47B0AFAF9F812A2
:10076E0001B3900088120269E4FFFEFDFC90008840
:10077E00E0F8A3E0F9A3E0FAA3E0FBC31202457090
:10078E009EFFFEFDFCAB2CAA2BA92AA829C31202A0
:10079E00455014900087E0FF04F074252FF582E495
:1007AE003400F583742DF0900086E0FFC3740A9F29
:1007BE00900024F0900086E0FF04F074252FF5825F
:1007CE00E43400F583E0FF900087E0FE04F074252A
:1007DE002EF582E43400F583EFF0900086E0C394AA
:1007EE000A7480948040CDE52D6026A3E0FF04F0CE
:1007FE0074252FF582E43400F583740DF090008794
:10080E00E0FF04F074252FF582E43400F583740ABA
:10081E00F0900024E02402F0900087E02425F58279
:07082E00E43400F583E4F05F
:0108350022A0
:1011A600E490007CF0A3F0C299C2008F99209918B0
:1011B60020001590007CE475F001120161FED3E574
:0811C600F094E8EE940340E50B
:0111CE0022FE
:020C70008F21D2
:100C7200E490008CF078267C00FD7BFF7A1279628A
:100C8200FE7F0312010ED2ACAF25AE24AD23AC22FF
:100C9200752D01120716C3E52194017480948040DA
:100CA2000A74252521F8E6FF1211A6E490008CF0C3
:100CB200900024E0FF90008CE0FEC39F5017742543
:100CC2002EF582E43400F583E0FF1211A690008C29
:070CD200E004F080DBC2AC7E
:010CD90022F8
:060E98008B1A8A1B891C65
:100E9E00E490008DF0781D7C00FD7BFF7A12796561
:100EAE00FE7F0312010ED2ACE490008DF090008D07
:100EBE00E0FFC3940374809480501AAB1AAA1BA946
:100ECE001C8F82758300120134FF1211A690008DC3
:070EDE00E004F080D8C2AC73
:010EE50022EA
:10114E00E4900083F0A3F0209818900083E475F0EB
:10115E0001120161FED3E5F094D0EE940740E87FD2
:0C116E000022900085E599F0C298E0FF97
:01117A002252
:0300230002045480
:10045400C0E0C0F0C083C082C0D075D000C000C06E
:0D04640001C002C003C004C005C006C007EF
:10047100900081E4F0A3F02098030205BCC298909B
:10048100007FE599F03001030205BCE0647E600362
:100491000205BC900000747EF09000807401F09021
:1004A1000080E0C3940474809480501A12114E901D
:1004B1000080E02400F582E43400F583EFF0900041
:1004C10080E004F080D9900001E0645560030205EA
:1004D100BCA3E064AA60030205BCA3E064AA6003B4
:1004E1000205BCC2ACC2AFD2019000807404F0908E
:1004F1000080E0C3941074809480501A12114E90C1
:100501000080E02400F582E43400F583EFF09000F0
:1005110080E004F080D97A0079007B01C002C0013B
:1005210078147C007D01D001D0027E007F10120181
:100531000E9000807404F0900019E0FF900080E0BC
:10054100FEC39F5022EE64066015E02414F582E498
:100551003400F583E0FF900081E0F0A3E06FF090BC
:100561000080E004F080D090001AE0FF900081E06C
:100571007003A3E06F703E900004E090002FF02420
:10058100FC6010248324FD500A24837023D284D27A
:10059100CA80007A0079007B01C002C00178347CF6
:1005A100007D01D001D0027E007F1012010E800576
:1005B10090002FE4F0C201D2AFD2AC309904C299BD
:0205C100D20066
:1005C300D007D006D005D004D003D002D001D0008C
:0B05D300D0D0D082D083D0F0D0E03236
:1010DD0053B1BF53B2BF53B17F53B27F75985043D5
:1010ED008920438780438E1053C4DFAB07AA06A91E
:1010FD0005A8047F407E427D0F7C001201B3EF04F2
:09110D00F404F58DD28ED2992272
:100CDA008F318E308D2F8C2E53B1BF53B2BF53B18B
:100CEA007F53B27F75985043878053C4F843C4201A
:100CFA00AB31AA30A92FA82E7F407E427D0F7C00FF
:100D0A001201B3C374FF9FFF74FF9EFEE49DFDE4CE
:100D1A009CFC78081202568FC6AB31AA30A92FA8BC
:100D2A002E7F407E427D0F7C001201B3C374FF9F69
:090D3A00FF8FC543C408D29922C1
:071242003098FDAF99C2983E
:011249002282
:08124A00C2998F993099FD2231
:100D43008F358E348D338C3253B1FB53B2FB53B397
:100D5300BF53B4BF75F85075C40853C4DFAB35AA8D
:100D630034A933A8327F407E427D0F7C001201B349
:100D7300C374FF9FFF74FF9EFEE49DFDE49CFC781B
:100D8300081202568FC6AB35AA34A933A8327F4066
:100D93007E427D0F7C001201B3C374FF9FFF8FC59A
:040DA30043C408221B
:0712520030F8FDAF9AC2F86D
:011259002272
:08125A00C2F98F9A30F9FD2260
:100F34008F168E158D148C13538EF7438901D28C22
:100F4400E4FFFEFDFCAB16AA15A914A813C31202F4
:100F5400456025758A7E758CFF308DFDC28DE51642
:100F640024FFF516E51534FFF515E51434FFF514E3
:0B0F7400E51334FFF51380C8C28C2287
:100F7F008F198E188D178C16538EF7438901D28CCB
:100F8F00E4FFFEFDFCAB19AA18A917A816C312029D
:100F9F00456025758ACA758CFA308DFDC28DE519AD
:100FAF0024FFF519E51834FFF518E51734FFF51789
:0B0FBF00E51634FFF51680C8C28C2236
:100FCA008F398E388D378C36538EEF438910D28EF7
:100FDA00E4FFFEFDFCAB39AA38A937A836C31202D2
:100FEA00456025758BEA758DCB308FFDC28FE5394B
:100FFA0024FFF539E53834FFF538E53734FFF5379E
:0B100A00E53634FFF53680C8C28E22A8
:100EE6008F3D8E3C8D3B8C3A53C9BF53C9DF43C9F6
:100EF60010D2CAE4FFFEFDFCAB3DAA3CA93BA83AD2
:100F0600C3120245602575CC3075CDF830CFFDC2D1
:100F1600CFE53D24FFF53DE53C34FFF53CE53B34AC
:0E0F2600FFF53BE53A34FFF53A80C8C2CA2217
:100DF8008F418E408D3F8C3E75C40743C408E4FF85
:100E0800FEFDFCAB41AA40A93FA83EC312024560C3
:100E18002B75C52C75C6CFE5C45410641070F853F3
:100E2800C4EFE54124FFF541E54034FFF540E53FD7
:100E380034FFF53FE53E34FFF53E80C253C4F72248
:100E48008F458E448D438C4275C40743C408E4FF24
:100E5800FEFDFCAB45AA44A943A842C31202456063
:100E68002B75C5D875C6FFE5C45410641070F853C7
:100E7800C4EFE54524FFF545E54434FFF544E54373
:100E880034FFF543E54234FFF54280C253C4F722EC
:100BF0000205DEE493A3F8E493A34003F68001F238
:100C000008DFF48029E493A3F85407240CC8C33305
:100C1000C4540F4420C8834004F456800146F6DFD4
:100C2000E4800B0102040810204080900DA7E47EB0
:100C3000019360BCA3FF543F30E509541FFEE493C9
:100C4000A360010ECF54C025E060A840B8E493A390
:100C5000FAE493A3F8E493A3C8C582C8CAC583CABB
:100C6000F0A3C8C582C8CAC583CADFE9DEE780BE73
:010DF70000FB
:10003E00E709F608DFFA8046E709F208DFFA803EA4
:10004E0088828C83E709F0A3DFFA8032E309F60891
:10005E00DFFA8078E309F208DFFA807088828C83F9
:10006E00E309F0A3DFFA806489828A83E0A3F608AD
:10007E00DFFA805889828A83E0A3F208DFFA804C87
:10008E0080D280FA80C680D4806980F2803380105E
:10009E0080A680EA809A80A880DA80E280CA8033C7
:1000AE0089828A83ECFAE493A3C8C582C8CCC5833F
:1000BE00CCF0A3C8C582C8CCC583CCDFE9DEE7800F
:1000CE000D89828A83E493A3F608DFF9ECFAA9F08E
:1000DE00EDFB2289828A83ECFAE0A3C8C582C8CCE4
:1000EE00C583CCF0A3C8C582C8CCC583CCDFEADEFD
:1000FE00E880DB89828A83E493A3F208DFF980CC5F
:10010E0088F0EF60010E4E60C388F0ED2402B40457
:10011E000050B9F582EB2402B4040050AF232345FE
:06012E00822390008E7395
:10013400BB010CE58229F582E5833AF583E0225080
:1001440006E92582F8E622BBFE06E92582F8E222CA
:0D015400E58229F582E5833AF583E49322E4
:10016100C5F0F8A3E028F0C5F0F8E5821582700229
:060171001583E038F022C6
:1001770075F008758200EF2FFFEE33FECD33CDCC3F
:1001870033CCC58233C5829BED9AEC99E5829840C2
:100197000CF582EE9BFEED9AFDEC99FC0FD5F0D69F
:1001A700E4CEFBE4CDFAE4CCF9A88222B800C1B9C9
:1001B7000059BA002DEC8BF084CFCECDFCE5F0CB07
:1001C700F97818EF2FFFEE33FEED33FDEC33FCEB40
:1001D70033FB10D703994004EB99FB0FD8E5E4F9FB
:1001E700FA227818EF2FFFEE33FEED33FDEC33FCE8
:1001F700C933C910D7059BE99A4007EC9BFCE99ADC
:10020700F90FD8E0E4C9FAE4CCFB2275F010EF2F20
:10021700FFEE33FEED33FDCC33CCC833C810D70720
:100227009BEC9AE899400AED9BFDEC9AFCE899F85B
:0E0237000FD5F0DAE4CDFBE4CCFAE4C8F922EE
:10024500EB9FF5F0EA9E42F0E99D42F0E89C45F00F
:010255002286
:10025600E8600FECC313FCED13FDEE13FEEF13FF86
:03026600D8F122AA
:0C026900ECF0A3EDF0A3EEF0A3EFF02208
:10027500D083D082F8E4937012740193700DA3A318
:1002850093F8740193F5828883E47374029368602C
:06029500EFA3A3A380DF2C
:00000001FF
