:10000300010A46040D00000000010900010B000174
:020013000C00DF
:03003B00020812A6
:10081200C0E0E5EC30E105750801800AE5EC30E066
:0C08220005051153ECFE75EC00D0E0322F
:03008B000200363A
:04003600538FEF32C3
:10084300539BFD438F08438702538FF7439B022239
:1004550053B17F43B280C28753B37F43B480C29701
:1004650053B3BF43B440C29653B3DF43B420C295E0
:1004750053B3FE43B401D29053B3FD43B402C291CA
:1004850053B3FB43B404C29253B1DF43B220C285D8
:1004950053B1BF43B240C28653ACFE43AD01C2B0B7
:1004A50053B1EF43B210C28453B1F743B208C283CC
:1004B50053B1FB43B204C28253B1FD43B20243E9D7
:1004C5000843EA0253EBFDD28143B10153B2FE4327
:1004D500E90443EA0153EBFE53E9FB439B02D2AF28
:0104E50022F4
:10082E0053DF3F53DFF875D10175D9A5E4F5D485B3
:05083E000ADCD2DE22FD
:1007F500758F02E4F586439C04A2AF9200C2AF75E3
:0D080500C7AA75C75553A37FA20092AF226A
:1006EF00E4900022F0D28790001E04F090001EE0EC
:1006FF00601F7F027E007D007C0012058690002225
:10070F00E004F0E0D394C87480948040DF800280CE
:0C071F00DBE490001EF0900020F0C28788
:01072B0022AB
:10066A00EF6022A2AF9200C2AF75C7AA75C7554301
:10067A00910143C60475C7AA75C7555391FEA200D6
:10068A0092AFD2DF22C2DFA2AF9200C2AF75C7AA71
:10069A0075C75543910153C6FB75C7AA75C755530C
:0706AA0091FEA20092AF22B5
:10008E00E4F512F513F514F50890001D04F0E49054
:10009E000020F090001FF090001EF0120455120682
:1000AE00B112082EA2AF9200C2AF75C7AA75C7557E
:1000BE0053A37FA20092AF1207F50514E508603234
:1000CE00E4F508F513F513C3E51394647480948076
:1000DE0050127F017E007D007C0012058620810477
:1000EE00051380E3E5136464700890002004F01299
:1000FE0006EF90001DE070030201E6D3E514943282
:10010E007480948050030201E6E4F514F511539BBC
:10011E00FDC2907F0AFEFDFC120536E4F5EC439B12
:10012E00027F0112066A7E007D007C00120586E4C5
:10013E00FF12066AD2900F7E007D007C00120586AB
:10014E00C2907F0112066A7E007D007C0012058639
:10015E00E4FF12066A0F7E007D007C00120586D237
:10016E0090539BFDC3E5119401748094804063E528
:10017E00127062F511C290439B027F0112066A7ED5
:10018E00007D007C00120586E4FF12066A0F7E00D9
:10019E007D007C001205867F0112066A7E007D00BE
:1001AE007C00120586E4FF12066A0F7E007D007C3D
:1001BE0000120586D290539BFDC3E5119401748005
:1001CE00948040119000207402F01206EF75120117
:1001DE008003E4F512E4F51190001FE06005E4F0F1
:1001EE0012082E439B027F017E007D007C001206CA
:0401FE001F0200C814
:0102020022D9
:10003E008F1C8E1B8D1A8C19538EF7438901D28C0F
:10004E00E4FFFEFDFCAB1CAA1BA91AA819C31207DC
:10005E002C6025758A7E758CFF308DFDC28DE51C5A
:10006E0024FFF51CE51B34FFF51BE51A34FFF51ACA
:0B007E00E51934FFF51980C8C28C2280
:1005D4008F248E238D228C21538EF7438901D28C54
:1005E400E4FFFEFDFCAB24AA23A922A821C3120721
:1005F4002C6025758ACA758CFA308DFDC28DE52470
:1006040024FFF524E52334FFF523E52234FFF52206
:0B061400E52134FFF52180C8C28C22D4
:10061F008F188E178D168C15538EEF438910D28E2F
:10062F00E4FFFEFDFCAB18AA17A916A815C3120705
:10063F002C6025758BEA758DCB308FFDC28FE51839
:10064F0024FFF518E51734FFF517E51634FFF516F7
:0B065F00E51534FFF51580C8C28E229F
:100586008F188E178D168C1553C9BF53C9DF43C9F3
:1005960010D2CAE4FFFEFDFCAB18AA17A916A815CF
:1005A600C312072C602575CC3075CDF830CFFDC24F
:1005B600CFE51824FFF518E51734FFF517E51634CF
:0E05C600FFF516E51534FFF51580C8C2CA22F0
:1004E6008F288E278D268C2575C40743C408E4FF04
:1004F600FEFDFCAB28AA27A926A825C312072C6057
:100506002B75C52C75C6CFE5C45410641070F8530E
:10051600C4EFE52824FFF528E52734FFF527E5266F
:1005260034FFF526E52534FFF52580C253C4F722AE
:100536008F188E178D168C1575C40743C408E4FFF3
:10054600FEFDFCAB18AA17A916A815C312072C6046
:100556002B75C5D875C6FFE5C45410641070F853E2
:10056600C4EFE51824FFF518E51734FFF517E5166F
:1005760034FFF516E51534FFF51580C253C4F7228E
:100015004A0000484D2D312E303200000041001CB1
:0C00250000021D000A41001A00011F002B
:1007CA00E4900021F0900021E0240AF582E434004C
:1007DA00F583E4F0900021E004F0E0C39410748003
:0A07EA00948040E1751D00751E0AA1
:0107F40022E2
:1006B100C2C6C2AF53B3F753B4F753B3EF53B4EF5A
:1006C100D294D293A2AF920075C7AA75C7557591FE
:1006D1000143B40875C7AA75C755E4F591A2009204
:0E06E100AF439B01D2AF75C1E0D2C6D2C22298
:1007980090001BE0640170078F1FF01207CA22C384
:1007A800E51E941AE51D94005017051EE51EAC1DA4
:1007B8007002051D14F5828C83EFF090001AE00496
:0207C800F0221D
:03003300020203C3
:10020300C0E0C0F0C083C082C0D075D000C000C0C1
:1002130001C002C003C004C005C006C007AFBDEFE4
:1002230012073D024800024D60025768025B8002DC
:100233006488026DA0027FA802A5B802CBC002CFDA
:10024300C8000002D1D2C40202D190001B7401F095
:10025300D2C2807AD2C28076AFBC120798D2C28053
:100263006DAFBC120798D2C28064D2C2D3E51F948B
:10027300007480948040571202F18052C3E51E94AB
:100283001AE51D94005014051EE51EAE1D700205EF
:100293001D14F5828E83E0F5BC800375BC00D2C2C9
:1002A300802CC3E51E941AE51D94005014051EE529
:1002B3001EAE1D7002051D14F5828E83E0F5BC8011
:1002C3000375BC00D2C28006D2C28002D2C2C2C3AE
:1002D30020C4FDD007D006D005D004D003D002D06F
:0E02E30001D000D0D0D082D083D0F0D0E03255
:100763008E298F2A8C2B8D2CAF031BEF6024052C35
:10077300E52CAE2B7002052B14F5828E83E0FF056A
:100783002AE52AAC297002052914F5828C83EFF03F
:0507930080D6AF032237
:1002F100E490001CF0E51F24FE602114605114609D
:100301005B146064240460030203A290000AE0F518
:100311000A90001F7401F090000AF02290000A7404
:1003210002F090001EE06018900020E0FF64016080
:1003310005EF6402700A900020E090000BF0800548
:10034100E490000BF0E490001EF0900020F0229069
:10035100000A7403F090001D7401F02290000A74E9
:1003610004F0E490001DF02290000A7405F0E4907E
:100371000021F0900021E0C3940A748094805027FA
:10038100E0FF2400F582E43400F583E0FE740B2FD6
:10039100F582E43400F583EEF0900021E004F08072
:0703A100D290000AE51FF0F5
:0103A8002232
:030000000203A94F
:1003A90075C7AA75C75575FD5A75C7AA75C7557515
:1003B900FDA5787FE4F6D8FD9000007FFF7E03E479
:0C03C900F0A3DFFCDEFA75812C020410AA
:1003D50002008EE493A3F8E493A34003F68001F2B0
:1003E50008DFF48029E493A3F85407240CC8C33329
:1003F500C4540F4420C8834004F456800146F6DFF8
:10040500E4800B0102040810204080900003E47E84
:10041500019360BCA3FF543F30E509541FFEE493EC
:10042500A360010ECF54C025E060A840B8E493A3B3
:10043500FAE493A3F8E493A3C8C582C8CAC583CADE
:10044500F0A3C8C582C8CAC583CADFE9DEE780BE96
:0100310000CE
:10072C00EB9FF5F0EA9E42F0E99D42F0E89C45F023
:01073C00229A
:10073D00D083D082F8E4937012740193700DA3A34B
:10074D0093F8740193F5828883E47374029368605F
:06075D00EFA3A3A380DF5F
:00000001FF
